:020000040000FA
:0600000000F0F3EF00F038
:100008004A82E1CF1EF0E2CF1FF0D9CF20F0DACF3D
:1000180021F0F6CF22F0F7CF23F0F8CF24F0F5CF78
:1000280025F09EAA1AEF00F01CEF00F020EF00F078
:10003800DAEC01F020EF00F09DA825EF00F027EFA3
:1000480000F032EF00F09EA82CEF00F02EEF00F049
:1000580032EF00F0A8EC03F032EF00F0F2A837EF2F
:1000680000F039EF00F0B2EF00F0F2A23EEF00F03E
:1000780040EF00F0B2EF00F0F2923CEC05F0809017
:100088003EC001F03FC002F040C003F041C004F0A0
:10009800340E056E000E066E000E076E000E086E1A
:1000A800E2EC03F001C03AF002C03BF003C03CF0C0
:1000B80004C03DF0260E016E000E026E000E046EA6
:1000C800300E036E000E066E140E056EFBEC00F08B
:1000D800260E0E6E000E0F6E000E116E140E106EB0
:1000E8003AC012F03BC013F03CC014F03DC015F00C
:1000F80085EC02F0B20E076E000E086EEB0E096E6C
:10010800010E0A6E1BEC04F0B20E116E000E126E98
:10011800260E136E000E146EE6EC04F0B20E116E8D
:10012800000E126EF20E136E010E146EE6EC04F061
:10013800B20E016E000E026E4FEC04F001C046F0E4
:1001480002C047F0000E3E6E000E3F6E000E406E7D
:10015800000E416E78EC04F0B2EF00F0F2AAB7EFAF
:1001680000F0B9EF00F0E1EF00F0F2A4BEEF00F00C
:10017800C0EF00F0E1EF00F0F2943E280AE13F28DA
:1001880008E1402806E14128D8A4CDEF00F0CFEFE0
:1001980000F0D9EF00F0000E3E6E000E3F6E000E2C
:1001A800406E000E416ED9EF00F0010E3E26000EA3
:1001B8003F2240224122E1EF00F025C0F5FF24C094
:1001C800F8FF23C0F7FF22C0F6FF21C0DAFF20C0E6
:1001D800D9FF1FC0E2FF1EC0E1FF4A921100FBEFEA
:1001E80004F00046494E453A20000D0A000001C0BF
:1001F8000DF002C00EF005500610D8A406EF01F06D
:1002080008EF01F00CEF01F0D9EF01F0D9EF01F0A0
:100218000DC0D9FF0EC0DAFF03C0DFFFFF0E076E67
:10022800FF0E086E05C009F006C00AF0075009263F
:1002380008500A2209500D24D96E0A500E20DA6E91
:1002480003C0DFFF065007E1030E055CD8B02FEFAF
:1002580001F031EF01F035EF01F0D9EF01F0D9EFFE
:1002680001F020EE01F00D50D9260E50DA2203C01D
:10027800DFFF20EE02F00D50D9260E50DA2203C01F
:10028800DFFFFE0E076EFF0E086E05C009F006C000
:100298000AF00750092608500A2209500D24D96E81
:1002A8000A500E20DA6E03C0DFFFFD0E076EFF0E48
:1002B800086E05C009F006C00AF007500926085064
:1002C8000A2209500D24D96E0A500E20DA6E03C096
:1002D800DFFF065007E1070E055CD8B076EF01F0A6
:1002E80078EF01F07CEF01F0D9EF01F0D9EF01F0E0
:1002F80020EE03F00D50D9260E50DA2203C0DFFF9E
:10030800FC0E076EFF0E086E05C009F006C00AF065
:100318000750092608500A2209500D24D96E0A50A0
:100328000E20DA6E03C0DFFF065007E1090E055CF8
:10033800D8B0A1EF01F0A3EF01F0A7EF01F0D9EFDA
:1003480001F0D9EF01F00DC007F00EC008F0071E4C
:10035800081E074A082A030E07140B6E0C6A0B5076
:100368000D260C500E220B50055E0C50065AFC0E42
:100378000516FF0E0616CEEF01F00DC0D9FF0EC010
:10038800DAFF03C0DFFF0506D8A006060D4A0E2ACD
:10039800CEEF01F005500610D8A4D5EF01F0D7EF45
:1003A80001F0C1EF01F0D9EF01F01200424A432AEF
:1003B800FF0E0F6EFF0E106E42C011F043C012F018
:1003C8000F50112610501222800E1124D96E000EE3
:1003D8001220DA6EAECFDFFF435009E1020E425C15
:1003E800D8A0F9EF01F0FBEF01F084EF02F0FE0E68
:1003F8000F6EFF0E106E42C011F043C012F00F5086
:10040800112610501222800E1124D96E000E1220CF
:10041800DA6E0D0EDE18D8A414EF02F016EF02F013
:1004280084EF02F0FF0E0F6EFF0E106E42C011F047
:1004380043C012F00F50112610501222800E1124C2
:10044800D96E000E1220DA6E0A0EDE18D8A42FEF2D
:1004580002F031EF02F084EF02F0310E0001801952
:10046800D8A439EF02F03BEF02F045EF02F00EECB2
:1004780005F092908080F292F28832EC05F084EFD9
:1004880002F0520E00018019D8A44DEF02F04FEF90
:1004980002F07CEF02F0000E156E000E146E67EF8E
:1004A80002F0800E1424D96E000E1520DA6EB20EFA
:1004B8001424E16E000E1520E26EDFCFE7FF144A28
:1004C800152A67EF02F01450425C15504358D8B013
:1004D80070EF02F072EF02F055EF02F042C046F002
:1004E80043C047F00EEC05F078EC04F084EF02F01E
:1004F8000EEC05F084EF02F084EF02F084EF02F0D6
:10050800120012C016F013C017F014C018F015C06E
:1005180019F010C01CF011C01DF01C500E24D96E2B
:100528001D500F20DA6E000EDF6E000E1B6E000EDF
:100538001A6E9FEF02F01A4A1B2A1C06D8A01D0645
:100548001C500E24D96E1D500F20DA6E12C001F017
:1005580013C002F014C003F015C004F00A0E056EB3
:10056800000E066E000E076E000E086E5AEC03F0C1
:100578000150300FDF6E12C001F013C002F014C03A
:1005880003F015C004F00A0E056E000E066E000E8C
:10059800076E000E086EFEEC02F001C012F002C0F9
:1005A80013F003C014F004C015F0060E1A181B103F
:1005B800D8A4E1EF02F0E3EF02F0F0EF02F01C063E
:1005C800D8A01D061C500E24D96E1D500F20DA6EBF
:1005D8002C0EDF6EF0EF02F01250131014101510ED
:1005E800D8A4F9EF02F0FBEF02F09FEF02F0FDEF65
:1005F80002F01200000E096E000E0A6E000E0B6E5D
:10060800000E0C6E0550061007100810D8B40FEF36
:1006180003F011EF03F051EF03F0010E0D6E1DEF23
:1006280003F0D89005360636073608360D2A1DEF32
:1006380003F008AE22EF03F024EF03F015EF03F008
:1006480028EF03F028EF03F0D89009360A360B3666
:100658000C360550015C06500258075003580850E4
:100668000458D8A03AEF03F03CEF03F047EF03F04B
:100678000550015E0650025A0750035A0850045AA2
:10068800098047EF03F0D890083207320632053266
:100698000D2E28EF03F051EF03F009C001F00AC056
:1006A80002F00BC003F00CC004F012000550061055
:1006B80007100810D8B463EF03F065EF03F09FEF5D
:1006C80003F0010E096E71EF03F0D8900536063677
:1006D80007360836092A71EF03F008AE76EF03F003
:1006E80078EF03F069EF03F07CEF03F07CEF03F0A1
:1006F8000550015C0650025807500358085004582A
:10070800D8A089EF03F08BEF03F095EF03F00550C5
:10071800015E0650025A0750035A0850045A95EFD2
:1007280003F0D8900832073206320532092E7CEFE2
:1007380003F09FEF03F001C001F002C002F003C014
:1007480003F004C004F0120046504710D8A4AFEFDD
:1007580003F0B1EF03F0BAEF03F0000E456E000EA0
:10076800446E9D98E1EF03F0E1EF03F04650445CDE
:1007780047504558D8B0C3EF03F0C5EF03F0DDEF9D
:1007880003F0444A452AFF0E0F6EFF0E106E44C058
:1007980011F045C012F00F50112610501222B20E5F
:1007A8001124D96E000E1220DA6EDF50AD6EE1EF23
:1007B80003F0CFEC04F0E1EF03F01200000E096E35
:1007C800000E0A6E000E0B6E000E0C6EECEF03F0BE
:1007D80001A0F1EF03F0F3EF03F0FDEF03F0055094
:1007E800092606500A2207500B2208500C22FDEF5A
:1007F80003F0D8900536063607360836D890043206
:100808000332023201320150021003100410D8A43E
:1008180010EF04F012EF04F0ECEF03F009C001F060
:100828000AC002F00BC003F00CC004F0120009C0AB
:100838000DF00AC00EF007C00FF008C010F027EF47
:1008480004F027EF04F00D500B6E0E500C6E0D4A9D
:100858000E2A0BC0F6FF0CC0F7FFF86A0FC0D9FFCD
:1008680010C0DAFF0F4A102A000EF76403D0080000
:10087800F55005D0F6CFE1FFF7CFE2FFE750DF6E86
:10088800DF50D8A44AEF04F04CEF04F027EF04F04F
:100898004EEF04F0120001C005F002C006F059EF57
:1008A80004F0014A022A59EF04F001C0D9FF02C03E
:1008B800DAFFDF50D8A463EF04F065EF04F055EFDA
:1008C80004F067EF04F005C003F006C004F0031E4F
:1008D800041E034A042A01500324016E0250042016
:1008E800026E77EF04F012007BEF04F000F09EA890
:1008F80080EF04F082EF04F07AEF04F084EF04F064
:10090800444A452AFF0E016EFF0E026E44C003F0F2
:1009180045C004F00150032602500422B20E0324FD
:10092800D96E000E0420DA6EDF50AD6E48B002D0EA
:100938009D9801D09D8812009D98E4C048F0E5C0BC
:1009480049F00001E4B102D09D9A01D09D8A0001CE
:10095800E6B102D09F9A01D09F8A0001E6B102D089
:100968009F9801D09F88120021EC05F0000E00012D
:10097800E56F010EE46F000EE76F000EE66FA0EC66
:1009880004F0C1889380F288D09EF28EF28CCBEF6F
:1009980004F0F3EF00F0000E456E000E446E000EFA
:1009A800476E000E466EB20E016E000E026E000E0D
:1009B800046E000E036E000E066E320E056EFBEC22
:1009C80000F0120011C001F012C002F04FEC04F068
:1009D80001501124076E02501220086E13C009F04E
:1009E80014C00AF01BEC04F0FAEF04F0120000EE59
:1009F80080F0640EEE6AE806FDE100EE3EF00A0EB5
:100A0800EE6AE806FDE14A904A92000EF86E00018F
:100A1800B8EF04F0000E436E000E426E800E016EB9
:100A2800000E026E000E046E000E036E000E066EBF
:100A3800320E056EFBEC00F01200C18CC18A938265
:100A48009388AC98AC84AA96810EAF6EAB8EAC9CA2
:100A5800AB9CAC8AAB8831EF05F01200D58CD59AE7
:100A6800D580D582D584000ED66EF28AD58E120036
:080A7800D59EF29AF2941200DF
:020000040020DA
:08000000FFFFFFFFFFFFFFFF00
:020000040030CA
:0E000000FF020C1EFF0081FF03C003E003405F
:00000001FF
